0000001001Ravi Kumar                  20240501Aster Hospital              000050000POL000001
0000001002R Kumar                     20240501Aster Medcity               000050000POL000001
0000001003Anu Menon                   20240415Lakeshore                   000025000POL000002
0000001004Anu Menon                   20240415Lakeshore                   000025000POL000002